S019000046696E616C2050726F6A204353543132302E73726563C9
S11300000C9434000C9451000C9451000C94510045
S11300100C9451000C9451000C9451000C94510018
S11300200C9451000C9451000C9451000C94510008
S11300300C9451000C9451000C94A9010C9451009F
S11300400C9471010C9451000C9451000C945100C7
S11300500C9451000C9451000C9451000C945100D8
S11300600C9451000C94510011241FBECFEFD8E022
S1130070DEBFCDBF11E0A0E0B1E0EAE0F4E002C0F1
S113008005900D92AC30B107D9F721E0ACE0B1E0B6
S113009001C01D92A431B207E1F70E9453000C94F1
S11300A003020C940000CF93DF93CDB7DEB7A4977F
S11300B00FB6F894DEBF0FBECDBF8CEB8AB98FE0CC
S11300C084B980E48BB916BC83E080936E00789485
S11300D089E587BD84E085BDEAE7F0E087EA8083AF
S11300E080E680937C0080818064808386E0E5E004
S11300F0F1E0DE01119601900D928A95E1F780E01E
S113010090E008C0E7E0F0E0EC0FFD1FE80FF91FF6
S1130110108201968E319105ACF320910301309148
S11301200401229FA001239F500D500D1124249FF0
S1130130C001259F900D349F900D112466E070E05E
S11301400E94DB0121503109E1E0F0E0EC0FFD1FDA
S1130150E80FF91F8081E7E0F0E0EC0FFD1FE20FEC
S1130160F31F808320E030E027C04BB1E7E0F0E0EC
S1130170EC0FFD1FE20FF31F9081892F90E0880F91
S1130180991F880F991F842B8BB94FEF89E698E14B
S1130190415080409040E1F700C000008BB1837C67
S11301A08BB94FEF84E39CE0415080409040E1F7ED
S11301B000C000002F5F3F4F809103019091040124
S11301C02817390794F260E070E020E030E040E066
S11301D050E079C080917A0084FFFCCFEAE7F0E038
S11301E080818061808380917900803428F481E06B
S11301F085B9E1E0F0E016C08091790088232CF005
S113020082E085B9E2E0F0E00DC080917900803CA5
S113021028F484E085B9E4E0F0E004C088E085B91E
S1130220E8E0F0E08091100190911101892B31F107
S113023010921101109210018091120190911301FA
S1130240892BE1F4A7E0B0E0AC0FBD1FA20FB31FF0
S11302508C9190E0E817F90779F081E090E09093B1
S11302600F0180930E0116BC80910C0190910D0139
S1130270892BD1F361E070E02F5F3F4F6115710569
S113028051F418C0E7E0F0E0EC0FFD1FE80FF91F90
S11302901082019602C080E090E020910301309129
S11302A004018217930774F310920401109203015E
S11302B020E030E080910301909104012817390770
S11302C011F441E050E04115510509F483CF8091C8
S11302D0030190910401019690930401809303011A
S11302E01CCF1F920F920FB60F9211242F933F939E
S11302F08F939F9329B126FB882780F990E0209162
S11303001201309113018217930721F423E0209303
S1130310000105C02091000121502093000120918B
S1130320000121110DC0909313018093120181E00B
S113033090E0909311018093100183E08093000179
S11303409F918F913F912F910F900FBE0F901F900F
S113035018951F920F920FB60F9211248F939F93AB
S113036080910E0190910F01892B11F080E889B9D9
S11303708091010190910201019790930201809371
S113038001011816190684F081E090E090930D01A4
S113039080930C0188EC90E090930201809301011A
S11303A010920F0110920E019F918F910F900FBE2A
S11303B00F901F90189597FB072E16F4009407D002
S11303C077FD09D00E94EF0107FC05D03EF490951B
S11303D081959F4F0895709561957F4F0895AA1B4D
S11303E0BB1B51E107C0AA1FBB1FA617B70710F01C
S11303F0A61BB70B881F991F5A95A9F7809590954E
S10D0400BC01CD010895F894FFCF6C
S10F040A03C800010008020104080100FE
S9030000FC
